:10001C00C2B6D2B5D2B7227F00C2B57E00D2B68F9F
:10002C0005ED2DFDA2B7E4334DFFC2B60EBE0A009E
:10003C0040EBD2B58F8222AE82AF837C007D008CE8
:10004C00028D03C3EA9EEB9F501B7A7F7B00EA2450
:10005C00FFF8EB34FFF988028903E84970F00CBC17
:06006C0000DD0D80DA2228
:03000000020006F5
:03001900020003DF
:0300030002007286
:10007200751C00751D00751E00751F00752000128D
:10008200029912001C7521017582011202CE901193
:100092003875F0801202F89003E81200431203450B
:1000A2007E007F007D04ED241CF98D04EC14241CD9
:1000B200F88604A7047B00EC2EFEEB3FFFDDE7C0D1
:1000C20007C006120023AD82D006D0078D1C7C002B
:1000D200ED2EF582EC3FF5837557058C5812034BD4
:1000E200AE82AF83C007C006C006C0077446C0E038
:1000F2007411C0E07480C0E07408C0E07400C0E015
:100102007440C0E0120572E58124F8F58175210181
:100112007582011202CE90000875F0401202F87545
:1001220021027582011202CE90115A75F0801202DC
:10013200F8D006D0078E828F831205F3AC82AD838E
:10014200AEF0FFE4C0E0C0E0747FC0E07443C0E002
:100152008C828D838EF0EF120F09AC82AD83AEF0EC
:10016200FFE58124FCF581C004C005C006C00790EC
:10017200000075F0A07440120374AC82AD83AEF03F
:10018200FFE58124FCF581C004C005C006C00790CC
:10019200000075F0C87442120374AC82AD83AEF0F5
:1001A200FFE58124FCF5818C828D838EF0EF1205B0
:1001B200BFAE82AF83755764755800C007C0061280
:1001C2001031E5828583F02430FCE435F08C821214
:1001D20002F375822E1202F3D006D00775570A7504
:1001E20058008E828F83C007C00612103175570ADD
:1001F200755800120FE8E5828583F02430FCE4355F
:10020200F08C821202F3D006D00775570A75580097
:100212008E828F83120FE8E5828583F02430FEE41C
:0A02220035F08E821202F30200A2F2
:101138003830353120414443303833312000526152
:101148007720414443203D20256420202020202072
:091158000000566F6C74733A003C
:10022C007E007F007CC87D00EC24FFFAED34FFFBE0
:10023C008A048B05EA4B70F00EBE00010FC3EE94DE
:10024C000AEF6480948040DC22AF82D291C295A2E6
:10025C00959294A2949293A2939292EF30E002D250
:10026C0092EF30E102D293EF30E202D294EF30E31E
:10027C0002D295C29122E582FFC4540FF582C007C9
:10028C00120255D0078F8212025502022CC29075B1
:10029C00820312025512022C7582031202551202AD
:1002AC002C75820212025512022C758228120282BF
:1002BC0075820612028275820C120282758201020C
:1002CC000282AF82C2907401B5210E8F06747F2E0C
:1002DC00F582C007120282D0077402B5210874BFE0
:1002EC002FF58202028222D290020282AD82AE836C
:1002FC00AFF07B007C00EB2DF8EC3EF98F0288828E
:10030C0089838AF0120FCCF582C007C006C005C0E5
:10031C0004C0031202F3D003D004D005D006D007DA
:10032C000BBB00010CEB2DF8EC3EF98F0288828997
:10033C00838AF0120FCC70BE227582010202827A7F
:10034C0010E4FBFCE58225E0F582E58333F583EBD5
:10035C0033FBEC33FCEB9557F5F0EC95584006FC71
:10036C00ABF0438201DADD22120417BC0003020653
:10037C0020EF60FA30D502B2D1E583B4FF03020658
:10038C0036E582B4FF0302063625834007248240FB
:10039C000B0206202483145003020636F582EA8DE4
:1003AC00F0A4A8F0EA8EF0A428F8E435F0F9EB8D6F
:1003BC00F0A428E935F0F9E433CA8FF0A429F9EA5E
:1003CC0035F0FAEBF88EF0A429F9EA35F0FAE433BB
:1003DC00FBEC8DF0A429F9EA35F0FAE43BFBE88F4D
:1003EC00F0A42AFAEB35F0FBE433CCFD8EF0A42A12
:1003FC00FAEB35F0FBE43CFCED8FF0A42BFBEC3579
:10040C00F0FC20E7031204450205FFAA82AB83A28D
:10041C00F73392D1F5826002D2F7ACF0E58124F982
:10042C00F8E6FD08E6FE0886F008E6A2F73392D55A
:09043C00F5836002D2F7AFF02253
:06001300E478FFF6D8FDC1
:100445007804EC7011E58224F8500AF582E4C9CAF3
:10045500CBFCD8EF22EC7820058220E713D582016A
:1004650022C3E933F9EA33FAEB33FBEC33FCD8EA80
:10047500158222E557455860467A01E55725E0F58E
:1004850057E558334012F558E5829557E583955859
:1004950040030A80E6C3E55813F558E55713F557A9
:1004A500C3E5829557F5F0E58395584005F58385B5
:1004B500F082C3E55813F558E55713F557DAE122ED
:1004C500C029858129C082058105810581E5292409
:1004D500FBF8A9290909E6F70809E6F70809E6F787
:1004E500A829080886820886830886F0120FCCFAA8
:1004F500A3120FCCFBA3120FCCFF74012AFCE43B23
:10050500FD8F06A829080886820886830886F0ECF0
:100515001210DAA3ED1210DAA3EE1210DA8A828B2A
:10052500838FF0A82908E61210DA852981D02922BF
:1005350085822685832785F02875372675380075C9
:10054500394085223A85233B85243C85253D900409
:10055500C51206ECAE82AF83AB26AC27AD288B82E5
:100565008C838DF0E41210DA8E828F8322C029E508
:1005750081F52924F8FF8F3DE52924FBFF8F377589
:100585003800753940E52924F8F8863A08863B088D
:10059500863C9004C51206ECAE82AF83E52924FBA8
:1005A500F886030886040886058B828C838DF0E423
:1005B5001210DA8E828F83D02922121069700AE513
:1005C50082458345F0700122E430D112F4700BE5C9
:1005D500F0F47006E58330E7012290800022700A6E
:1005E500E5F07006E58320E70122907FFF22E4AC69
:1005F50083AB82FAF9748E021027B98003EA13B32C
:100605004010EA2401FAE43BFBE43CFC50047C8006
:100615000582BC000EBB000BBA0008E4F5F0F583BB
:10062500F58222A2D1E582138CF092F78B838A8220
:1006350022E4F583F58275F080F4A2D11322E4F566
:1006450083F58275F0C0747F22AF82C02DC02EC0A5
:100655002F12065B8007C02BC02C8F8222158115B7
:100665008115810535E4B53502053622AF82743032
:100675002FFF24C6500B74072FFFE52A600343079D
:10068500208F8202064EE582FFC4540FF582C00713
:10069500120671D007740F5FF582020671858257C5
:1006A500AB30AC31AD32AE33AA347559208A07EF81
:1006B5002FF558EE2354014558FAEB2BFBEC33FC90
:1006C500ED33FDEE33FEC3EA95574008EAC395576F
:1006D500FA430301E55914FF8F5970D18B308C31E2
:1006E5008D328E338A342285822B85832C85372D56
:1006F50085382E85392FE4F535F536AD3AAE3BAF65
:100705003C8D828E838FF0120FCCFC74012DF53A4F
:10071500E43EF53B8F3CECFF7003020ECDBF250296
:100725008003020EC57E007D008E3E8E3F7A007BE3
:10073500008E407C008E41E4F549F54A7542FF750F
:1007450043FF853A4B853B4C853C4D854B82854C1B
:1007550083854DF0120FCCF54EA385824B85834CD6
:10076500854B3A854C3B854D3C7425B54E08854EE9
:100775008212064E808574D0254E400302082EE570
:100785004E24C6500302082E74FFB54255B5435298
:10079500854957854A5890000AC006C005C004C05F
:1007A50003C002120EEC85824F858350D002D00320
:1007B500D004D005D006854E51755200E551254F20
:1007C500F551E5523550F552E55124D0F549E5523C
:1007D50034FFF54AE549454A60030207507D0102A9
:1007E500075085425785435890000AC006C005C08A
:1007F50004C003C002120EEC858251858352D002DB
:10080500D003D004D005D006854E4F755000E54F76
:100815002551F551E5503552F552E55124D0F542B3
:10082500E55234FFF543020750742EB54E1574FF9B
:10083500B54205B543028003020750E4F542F5438E
:10084500020750749F254E500EE54E2485400853EF
:100855004EDF752A018003752A007420B54E030208
:1008650008FA742BB54E030208F4742DB54E0280B8
:10087500797442B54E030209007443B54E0302096B
:100885000B7444B54E03020B587446B54E03020B68
:100895006E7448B54E030207507449B54E03020BFA
:1008A50058744AB54E03020750744CB54E02805039
:1008B500744FB54E03020B5F7450B54E03020AA385
:1008C5007453B54E0280767454B54E0302075074C6
:1008D50055B54E03020B647458B54E03020B69748B
:1008E5005AB54E03020750020B727E01020750757E
:1008F5003E01020750753F010207507B0102075078
:10090500754001020750EB600AE53D14F9893D8702
:1009150051800DE53D24FEF54F854F3DA94F87518B
:10092500855182C006C005C004C003C00212064E30
:10093500D002D003D004D005D006020B94E53D24A7
:10094500FDF55185513DA951874B09874C09874DC7
:100955001919854B30854C31854D32854B82854C37
:1009650083854DF0C006C005C004C003C002120E49
:10097500D4858251858352D002D003D004D005D0CE
:100985000674FFB54209B54306855142855243EECB
:10099500704FC3E5519549E552954A5044E549C321
:1009A5009551F54FE54A9552F550854F4B85504C7D
:1009B500154F74FFB54F021550E54B454C601C753E
:1009C5008220C006C005C004C003C00212064ED076
:1009D50002D003D004D005D00680CF854F4985507D
:1009E5004A85424F8543508530828531838532F073
:1009F500120FCCF54B854B46604FC3E4954F748081
:100A05008550F063F08095F0503F154F74FFB54F5A
:100A1500021550854682C006C005C004C003C00249
:100A250012064ED002D003D004D005D00685304B37
:100A350085314C85324D054BE4B54B02054C854B54
:100A450030854C31854D32809EEE7003020B94C388
:100A5500E5519549E552954A4003020B94E549C392
:100A65009551F551E54A9552F55285514F855250AC
:100A7500155174FFB551021552E54F4550700302EB
:100A85000B8E758220C006C005C004C003C00212CB
:100A9500064ED002D003D004D005D00680CCE53D6B
:100AA50024FDF54F854F3DA94F874B09874C098795
:100AB5004D1919854B30854C31854D32853247743A
:100AC5008025475005754F43801974A0254750056B
:100AD500754F50800E74C025475005754F498003EA
:100AE500754F58854F82C006C005C004C003C002BB
:100AF50012064E75823A12064E75823012064E75F2
:100B0500827812064ED002D003D004D005D00674E8
:100B150049B54F0280217450B54F02801A85318244
:100B2500C006C005C004C003C00212068BD002D0A7
:100B350003D004D005D006853082C006C005C004A8
:100B4500C003C00212068BD002D003D004D005D05A
:100B550006803C7A0175410A8035754108803075FB
:100B6500410A802B75411080267C018022854E82AA
:100B7500C006C005C004C003C00212064ED002D094
:100B850003D004D005D006800685514985524AEC2C
:100B95006068E53D24FCFC8C3D8C01875309875436
:100BA5000987550987561919198553308554318593
:100BB5005532855633753061753111753280853002
:100BC5005385315485325574012553F54BE435541D
:100BD500F54C85554D854B30854C31854D328553CA
:100BE500828554838555F0120FCCFC8C537003021B
:100BF500070085538212064E80C4E5417003020743
:100C050000EB603FE53D14F9893D87048C5375542D
:100C1500007555007556008553308554318555321C
:100C2500855633EA6003020CB1853053755400755F
:100C35005500755600855330855431855532855696
:100C4500338069E5406025E53D24FCFC8C3D8C0145
:100C550087530987540987550987561919198553E3
:100C6500308554318555328556338040E53D24FE27
:100C7500FC8C3D8C018703098704198B53ECF554D3
:100C85003395E0F555F55685533085543185553204
:100C9500855633EA7016853053853154F555F5562A
:100CA500855330855431855532855633EA602AE5BA
:100CB5003330E723C3E49530F553E49531F554E437
:100CC5009532F555E49533F5568553308554318580
:100CD500553285563380027A007C01795FE4F553FD
:100CE500F554753400854182C006C005C004C002B4
:100CF500C0011206A2D001D002D004D005D006EC66
:100D0500700DE534C4F551E7FB4551F7198002A78D
:100D1500340553E4B553020554ECB40100E433FC47
:100D2500E53045314532453370B8894885534485AA
:100D35005445E549454A7005754901F54AED704345
:100D4500EE7040854953854A54AB440B8B5175521F
:100D550000C3E5519553E55295545021758220C045
:100D650006C005C004C00212064ED002D004D0054C
:100D7500D006155374FFB55302155480CC855349DD
:100D850085544AEA601D75822DC006C005C004124F
:100D9500064ED004D005D006154974FFB549021595
:100DA5004A8046E54445456040E53E601D75822B19
:100DB500C006C005C00412064ED004D005D00615E5
:100DC5004974FFB54902154A801FE53F601B7582CE
:100DD50020C006C005C00412064ED004D005D006BA
:100DE500154974FFB54902154AEE703C854953858E
:100DF5004A54AA53AB54155374FFB553021554C343
:100E0500E5449AE5459B5041ED60067A307B0080CC
:100E1500047A207B008A82C006C005C00412064EF3
:100E2500D004D005D00680CAC3E5449549E545956B
:100E35004A500FE549C39544F551E54A9545F552A4
:100E4500800DE4F551F5528006855351855452A91C
:100E550048854453854554AA53AD54155374FFB57D
:100E650053021554EA4D602EECB40100E433FC70D6
:100E75000A09E7C4540FFD8D3480078705740F5D9B
:100E8500F534853482C006C004C001120671D00154
:100E9500D004D00680C1EE7003020700AD51AE52FA
:100EA5008D038E041DBDFF011EEB4C700302070070
:100EB500758220C006C00512064ED005D00680E01A
:0F0EC5008F8212064E0207008535828536832202
:0B1161003C4E4F20464C4F41543E00D6
:100ED400AA82AB83120FCC6003A380F8C3E5829A85
:100EE400F582E5839BF58322E5828557F0A4C582CC
:100EF400C0F08558F0A4D0F025F0C5838557F0A440
:100F04002583F5832212041730D502B2D1BF00091C
:100F1400BC0003020643020636BC0003020620E5B9
:100F240083B4FF0BE582B4FF03020643020620E507
:100F340082B4FF03020636C395835007247F400B17
:100F44000206202480145003020636F582C3ED9A6B
:100F5400EE9BEF9C40111582C3EA33F9EB33FAECB4
:100F640033FBE433FC8005E4CCCBCAF9C08275F0D2
:100F740019C3E99DEA9EEB9FEC9400D5F002802D05
:100F8400400EE99DF9EA9EFAEB9FFBEC9400FCC34A
:100F9400B3E833F8E58233F582E58333F583C3E9B7
:100FA40033F9EA33FAEB33FBEC33FC80C4B3E4F9F2
:100FB40038FAE43582FBE43583FCD08250040582A0
:080FC4007C80120445020617AF
:0D00060075815F1210C4E5826003020003E3
:100FCC0020F71430F6148883A88220F507E6A8834E
:100FDC0075830022E280F7E49322E022C2D5E583F8
:100FEC0030E70DD2D5E4C39582F582E49583F58381
:100FFC00E55830E70BE4C39557F557E49558F55889
:10100C0012047830D50BE4C39582F582E49583F510
:10101C008322FCABF0AA83A982749EC2D1F5821202
:10102C0004450205FFC2D5E58330E70DD2D5E4C3F4
:10103C009582F582E49583F583E55830E70DB2D5BA
:10104C00E4C39557F557E49558F55812034B30D532
:10105C000BE4C39582F582E49583F583221210C8C4
:10106C00C3749E9582403979001210F530D126E96F
:10107C00F42401F582EAF43400F583EBF43400F542
:10108C00F0ECF43400700AE582458345F0700122DF
:10109C00E430E70F22EC20E71489828A838BF0225C
:1010AC0030D10AE4F582F583F5F074802274FFF5F3
:1010BC0082F583F5F0747F2275820022AA82AB83BD
:1010CC00A2F73392D1F5826002D2F7ACF02220F76E
:1010DC001130F6138883A88220F509F6A88375834E
:1010EC00002280FEF280F5F0226040F8258250024A
:1010FC0074FFF582E824F8501ECCCBCAF9E4CC245A
:10110C00F85014CBCAF9E4CB24F8500BCAF9E4CA52
:10111C0024F8500379002224086010F8C3EC13FC67
:0C112C00EB13FBEA13FAE913F9D8F122E7
:00000001FF
